{
  "abi": [
    {
      "inputs": [
        {
          "internalType": "string",
          "name": "uri",
          "type": "string"
        },
        {
          "internalType": "address",
          "name": "entityOwner",
          "type": "address"
        }
      ],
      "stateMutability": "nonpayable",
      "type": "constructor"
    },
    {
      "anonymous": false,
      "inputs": [
        {
          "indexed": true,
          "internalType": "address",
          "name": "account",
          "type": "address"
        },
        {
          "indexed": true,
          "internalType": "address",
          "name": "operator",
          "type": "address"
        },
        {
          "indexed": false,
          "internalType": "bool",
          "name": "approved",
          "type": "bool"
        }
      ],
      "name": "ApprovalForAll",
      "type": "event"
    },
    {
      "anonymous": false,
      "inputs": [
        {
          "indexed": true,
          "internalType": "address",
          "name": "operator",
          "type": "address"
        },
        {
          "indexed": true,
          "internalType": "address",
          "name": "from",
          "type": "address"
        },
        {
          "indexed": true,
          "internalType": "address",
          "name": "to",
          "type": "address"
        },
        {
          "indexed": false,
          "internalType": "uint256[]",
          "name": "ids",
          "type": "uint256[]"
        },
        {
          "indexed": false,
          "internalType": "uint256[]",
          "name": "values",
          "type": "uint256[]"
        }
      ],
      "name": "TransferBatch",
      "type": "event"
    },
    {
      "anonymous": false,
      "inputs": [
        {
          "indexed": true,
          "internalType": "address",
          "name": "operator",
          "type": "address"
        },
        {
          "indexed": true,
          "internalType": "address",
          "name": "from",
          "type": "address"
        },
        {
          "indexed": true,
          "internalType": "address",
          "name": "to",
          "type": "address"
        },
        {
          "indexed": false,
          "internalType": "uint256",
          "name": "id",
          "type": "uint256"
        },
        {
          "indexed": false,
          "internalType": "uint256",
          "name": "value",
          "type": "uint256"
        }
      ],
      "name": "TransferSingle",
      "type": "event"
    },
    {
      "anonymous": false,
      "inputs": [
        {
          "indexed": false,
          "internalType": "string",
          "name": "value",
          "type": "string"
        },
        {
          "indexed": true,
          "internalType": "uint256",
          "name": "id",
          "type": "uint256"
        }
      ],
      "name": "URI",
      "type": "event"
    },
    {
      "inputs": [],
      "name": "ACCESS_TOKEN",
      "outputs": [
        {
          "internalType": "uint256",
          "name": "",
          "type": "uint256"
        }
      ],
      "stateMutability": "view",
      "type": "function"
    },
    {
      "inputs": [
        {
          "internalType": "address",
          "name": "account",
          "type": "address"
        },
        {
          "internalType": "uint256",
          "name": "id",
          "type": "uint256"
        }
      ],
      "name": "balanceOf",
      "outputs": [
        {
          "internalType": "uint256",
          "name": "",
          "type": "uint256"
        }
      ],
      "stateMutability": "view",
      "type": "function"
    },
    {
      "inputs": [
        {
          "internalType": "address[]",
          "name": "accounts",
          "type": "address[]"
        },
        {
          "internalType": "uint256[]",
          "name": "ids",
          "type": "uint256[]"
        }
      ],
      "name": "balanceOfBatch",
      "outputs": [
        {
          "internalType": "uint256[]",
          "name": "",
          "type": "uint256[]"
        }
      ],
      "stateMutability": "view",
      "type": "function"
    },
    {
      "inputs": [
        {
          "internalType": "address",
          "name": "account",
          "type": "address"
        },
        {
          "internalType": "address",
          "name": "operator",
          "type": "address"
        }
      ],
      "name": "isApprovedForAll",
      "outputs": [
        {
          "internalType": "bool",
          "name": "",
          "type": "bool"
        }
      ],
      "stateMutability": "view",
      "type": "function"
    },
    {
      "inputs": [
        {
          "internalType": "address",
          "name": "_to",
          "type": "address"
        },
        {
          "internalType": "uint256",
          "name": "_tokenId",
          "type": "uint256"
        },
        {
          "internalType": "uint256",
          "name": "_amount",
          "type": "uint256"
        }
      ],
      "name": "mintAccessToken",
      "outputs": [],
      "stateMutability": "nonpayable",
      "type": "function"
    },
    {
      "inputs": [],
      "name": "owner",
      "outputs": [
        {
          "internalType": "address",
          "name": "",
          "type": "address"
        }
      ],
      "stateMutability": "view",
      "type": "function"
    },
    {
      "inputs": [
        {
          "internalType": "address",
          "name": "_to",
          "type": "address"
        },
        {
          "internalType": "uint256",
          "name": "_tokenId",
          "type": "uint256"
        }
      ],
      "name": "revokeAccessToken",
      "outputs": [],
      "stateMutability": "nonpayable",
      "type": "function"
    },
    {
      "inputs": [
        {
          "internalType": "address",
          "name": "from",
          "type": "address"
        },
        {
          "internalType": "address",
          "name": "to",
          "type": "address"
        },
        {
          "internalType": "uint256[]",
          "name": "ids",
          "type": "uint256[]"
        },
        {
          "internalType": "uint256[]",
          "name": "amounts",
          "type": "uint256[]"
        },
        {
          "internalType": "bytes",
          "name": "data",
          "type": "bytes"
        }
      ],
      "name": "safeBatchTransferFrom",
      "outputs": [],
      "stateMutability": "nonpayable",
      "type": "function"
    },
    {
      "inputs": [
        {
          "internalType": "address",
          "name": "from",
          "type": "address"
        },
        {
          "internalType": "address",
          "name": "to",
          "type": "address"
        },
        {
          "internalType": "uint256",
          "name": "id",
          "type": "uint256"
        },
        {
          "internalType": "uint256",
          "name": "amount",
          "type": "uint256"
        },
        {
          "internalType": "bytes",
          "name": "data",
          "type": "bytes"
        }
      ],
      "name": "safeTransferFrom",
      "outputs": [],
      "stateMutability": "nonpayable",
      "type": "function"
    },
    {
      "inputs": [
        {
          "internalType": "address",
          "name": "operator",
          "type": "address"
        },
        {
          "internalType": "bool",
          "name": "approved",
          "type": "bool"
        }
      ],
      "name": "setApprovalForAll",
      "outputs": [],
      "stateMutability": "nonpayable",
      "type": "function"
    },
    {
      "inputs": [
        {
          "internalType": "bytes4",
          "name": "interfaceId",
          "type": "bytes4"
        }
      ],
      "name": "supportsInterface",
      "outputs": [
        {
          "internalType": "bool",
          "name": "",
          "type": "bool"
        }
      ],
      "stateMutability": "view",
      "type": "function"
    },
    {
      "inputs": [
        {
          "internalType": "string",
          "name": "uri",
          "type": "string"
        }
      ],
      "name": "updateuri",
      "outputs": [],
      "stateMutability": "nonpayable",
      "type": "function"
    },
    {
      "inputs": [
        {
          "internalType": "uint256",
          "name": "",
          "type": "uint256"
        }
      ],
      "name": "uri",
      "outputs": [
        {
          "internalType": "string",
          "name": "",
          "type": "string"
        }
      ],
      "stateMutability": "view",
      "type": "function"
    }
  ],
  "bytecode": {
    "object": "0x60806040523480156200001157600080fd5b50604051620021923803806200219283398101604081905262000034916200046a565b8162000040816200008d565b50620000668160006001604051806020016040528060008152506200009f60201b60201c565b600380546001600160a01b0319166001600160a01b0392909216919091179055506200082d565b60026200009b8282620005bb565b5050565b6001600160a01b038416620001055760405162461bcd60e51b815260206004820152602160248201527f455243313135353a206d696e7420746f20746865207a65726f206164647265736044820152607360f81b60648201526084015b60405180910390fd5b3360006200011385620001c1565b905060006200012285620001c1565b90506000868152602081815260408083206001600160a01b038b168452909152812080548792906200015690849062000687565b909155505060408051878152602081018790526001600160a01b03808a1692600092918716917fc3d58168c5ae7397731d063d5bbf3d657854427343f4c083240f7aacaa2d0f62910160405180910390a4620001b88360008989898962000217565b50505050505050565b60408051600180825281830190925260609160009190602080830190803683370190505090508281600081518110620001fe57620001fe620006ae565b602090810291909101015292915050565b505050505050565b62000236846001600160a01b0316620003e360201b6200066b1760201c565b156200020f5760405163f23a6e6160e01b81526001600160a01b0385169063f23a6e6190620002729089908990889088908890600401620006f2565b6020604051808303816000875af1925050508015620002b0575060408051601f3d908101601f19168201909252620002ad9181019062000739565b60015b6200037057620002bf6200076c565b806308c379a003620002ff5750620002d662000789565b80620002e3575062000301565b8060405162461bcd60e51b8152600401620000fc919062000818565b505b60405162461bcd60e51b815260206004820152603460248201527f455243313135353a207472616e7366657220746f206e6f6e204552433131353560448201527f526563656976657220696d706c656d656e7465720000000000000000000000006064820152608401620000fc565b6001600160e01b0319811663f23a6e6160e01b14620001b85760405162461bcd60e51b815260206004820152602860248201527f455243313135353a204552433131353552656365697665722072656a656374656044820152676420746f6b656e7360c01b6064820152608401620000fc565b6001600160a01b03163b151590565b634e487b7160e01b600052604160045260246000fd5b601f8201601f191681016001600160401b0381118282101715620004305762000430620003f2565b6040525050565b60005b83811015620004545781810151838201526020016200043a565b8381111562000464576000848401525b50505050565b600080604083850312156200047e57600080fd5b82516001600160401b03808211156200049657600080fd5b818501915085601f830112620004ab57600080fd5b815181811115620004c057620004c0620003f2565b6040519150620004db601f8201601f19166020018362000408565b808252866020828501011115620004f157600080fd5b6200050481602084016020860162000437565b50602085015190935090506001600160a01b03811681146200052557600080fd5b809150509250929050565b600181811c908216806200054557607f821691505b6020821081036200056657634e487b7160e01b600052602260045260246000fd5b50919050565b601f821115620005b657600081815260208120601f850160051c81016020861015620005955750805b601f850160051c820191505b818110156200020f57828155600101620005a1565b505050565b81516001600160401b03811115620005d757620005d7620003f2565b620005ef81620005e8845462000530565b846200056c565b602080601f8311600181146200062757600084156200060e5750858301515b600019600386901b1c1916600185901b1785556200020f565b600085815260208120601f198616915b82811015620006585788860151825594840194600190910190840162000637565b5085821015620006775787850151600019600388901b60f8161c191681555b5050505050600190811b01905550565b60008219821115620006a957634e487b7160e01b600052601160045260246000fd5b500190565b634e487b7160e01b600052603260045260246000fd5b60008151808452620006de81602086016020860162000437565b601f01601f19169290920160200192915050565b6001600160a01b03868116825285166020820152604081018490526060810183905260a0608082018190526000906200072e90830184620006c4565b979650505050505050565b6000602082840312156200074c57600080fd5b81516001600160e01b0319811681146200076557600080fd5b9392505050565b600060033d1115620007865760046000803e5060005160e01c5b90565b600060443d1015620007985790565b6040516003193d81016004833e81513d6001600160401b038083116024840183101715620007c857505050505090565b8285019150815181811115620007e15750505050505090565b843d8701016020828501011115620007fc5750505050505090565b6200080d6020828601018762000408565b509095945050505050565b602081526000620007656020830184620006c4565b611955806200083d6000396000f3fe608060405234801561001057600080fd5b50600436106100ce5760003560e01c806370c7fde61161008c578063a5c6ff6711610066578063a5c6ff67146101ca578063b2262131146101dd578063e985e9c5146101f0578063f242432a1461022c57600080fd5b806370c7fde6146101795780638da5cb5b1461018c578063a22cb465146101b757600080fd5b8062fdd58e146100d357806301ffc9a7146100f95780630e89341c1461011c5780632eb2c2d61461013c5780633eb5002a146101515780634e1273f414610159575b600080fd5b6100e66100e1366004610f7a565b61023f565b6040519081526020015b60405180910390f35b61010c610107366004610fba565b6102d5565b60405190151581526020016100f0565b61012f61012a366004610fde565b610327565b6040516100f09190611044565b61014f61014a3660046111ad565b6103bb565b005b6100e6600081565b61016c610167366004611257565b610407565b6040516100f0919061135d565b61014f610187366004611370565b610531565b60035461019f906001600160a01b031681565b6040516001600160a01b0390911681526020016100f0565b61014f6101c53660046113c1565b610554565b61014f6101d83660046113fd565b610563565b61014f6101eb366004610f7a565b6105e5565b61010c6101fe366004611430565b6001600160a01b03918216600090815260016020908152604080832093909416825291909152205460ff1690565b61014f61023a366004611463565b610626565b60006001600160a01b0383166102af5760405162461bcd60e51b815260206004820152602a60248201527f455243313135353a2061646472657373207a65726f206973206e6f742061207660448201526930b634b21037bbb732b960b11b60648201526084015b60405180910390fd5b506000908152602081815260408083206001600160a01b03949094168352929052205490565b60006001600160e01b03198216636cdb3d1360e11b148061030657506001600160e01b031982166303a24d0760e21b145b8061032157506301ffc9a760e01b6001600160e01b03198316145b92915050565b606060028054610336906114c8565b80601f0160208091040260200160405190810160405280929190818152602001828054610362906114c8565b80156103af5780601f10610384576101008083540402835291602001916103af565b820191906000526020600020905b81548152906001019060200180831161039257829003601f168201915b50505050509050919050565b6001600160a01b0385163314806103d757506103d785336101fe565b6103f35760405162461bcd60e51b81526004016102a690611502565b610400858585858561067a565b5050505050565b6060815183511461046c5760405162461bcd60e51b815260206004820152602960248201527f455243313135353a206163636f756e747320616e6420696473206c656e677468604482015268040dad2e6dac2e8c6d60bb1b60648201526084016102a6565b6000835167ffffffffffffffff81111561048857610488611057565b6040519080825280602002602001820160405280156104b1578160200160208202803683370190505b50905060005b8451811015610529576104fc8582815181106104d5576104d5611551565b60200260200101518583815181106104ef576104ef611551565b602002602001015161023f565b82828151811061050e5761050e611551565b60209081029190910101526105228161157d565b90506104b7565b509392505050565b6003546001600160a01b0316331461054857600080fd5b61055181610857565b50565b61055f338383610863565b5050565b6001600160a01b03831661057657600080fd5b6000811161058357600080fd5b811561058e57600080fd5b8060011461059b57600080fd5b6105a5838361023f565b156105af57600080fd5b6105b9338361023f565b6001146105c557600080fd5b6105e083838360405180602001604052806000815250610943565b505050565b6001600160a01b0382166105f857600080fd5b801561060357600080fd5b6003546001600160a01b0316331461061a57600080fd5b61055f82826001610a57565b6001600160a01b038516331480610642575061064285336101fe565b61065e5760405162461bcd60e51b81526004016102a690611502565b6104008585858585610bd3565b6001600160a01b03163b151590565b81518351146106dc5760405162461bcd60e51b815260206004820152602860248201527f455243313135353a2069647320616e6420616d6f756e7473206c656e677468206044820152670dad2e6dac2e8c6d60c31b60648201526084016102a6565b6001600160a01b0384166107025760405162461bcd60e51b81526004016102a690611596565b3360005b84518110156107e957600085828151811061072357610723611551565b60200260200101519050600085838151811061074157610741611551565b602090810291909101810151600084815280835260408082206001600160a01b038e1683529093529190912054909150818110156107915760405162461bcd60e51b81526004016102a6906115db565b6000838152602081815260408083206001600160a01b038e8116855292528083208585039055908b168252812080548492906107ce908490611625565b92505081905550505050806107e29061157d565b9050610706565b50846001600160a01b0316866001600160a01b0316826001600160a01b03167f4a39dc06d4c0dbc64b70af90fd698a233a518aa5d07e595d983b8c0526c8f7fb878760405161083992919061163d565b60405180910390a461084f818787878787610cfd565b505050505050565b600261055f82826116b1565b816001600160a01b0316836001600160a01b0316036108d65760405162461bcd60e51b815260206004820152602960248201527f455243313135353a2073657474696e6720617070726f76616c20737461747573604482015268103337b91039b2b63360b91b60648201526084016102a6565b6001600160a01b03838116600081815260016020908152604080832094871680845294825291829020805460ff191686151590811790915591519182527f17307eab39ab6107e8899845ad3d59bd9653f200f220920489ca2b5937696c31910160405180910390a3505050565b6001600160a01b0384166109a35760405162461bcd60e51b815260206004820152602160248201527f455243313135353a206d696e7420746f20746865207a65726f206164647265736044820152607360f81b60648201526084016102a6565b3360006109af85610e58565b905060006109bc85610e58565b90506000868152602081815260408083206001600160a01b038b168452909152812080548792906109ee908490611625565b909155505060408051878152602081018790526001600160a01b03808a1692600092918716917fc3d58168c5ae7397731d063d5bbf3d657854427343f4c083240f7aacaa2d0f62910160405180910390a4610a4e83600089898989610ea3565b50505050505050565b6001600160a01b038316610ab95760405162461bcd60e51b815260206004820152602360248201527f455243313135353a206275726e2066726f6d20746865207a65726f206164647260448201526265737360e81b60648201526084016102a6565b336000610ac584610e58565b90506000610ad284610e58565b60408051602080820183526000918290528882528181528282206001600160a01b038b1683529052205490915084811015610b5b5760405162461bcd60e51b8152602060048201526024808201527f455243313135353a206275726e20616d6f756e7420657863656564732062616c604482015263616e636560e01b60648201526084016102a6565b6000868152602081815260408083206001600160a01b038b81168086529184528285208a8703905582518b81529384018a90529092908816917fc3d58168c5ae7397731d063d5bbf3d657854427343f4c083240f7aacaa2d0f62910160405180910390a4604080516020810190915260009052610a4e565b6001600160a01b038416610bf95760405162461bcd60e51b81526004016102a690611596565b336000610c0585610e58565b90506000610c1285610e58565b90506000868152602081815260408083206001600160a01b038c16845290915290205485811015610c555760405162461bcd60e51b81526004016102a6906115db565b6000878152602081815260408083206001600160a01b038d8116855292528083208985039055908a16825281208054889290610c92908490611625565b909155505060408051888152602081018890526001600160a01b03808b16928c821692918816917fc3d58168c5ae7397731d063d5bbf3d657854427343f4c083240f7aacaa2d0f62910160405180910390a4610cf2848a8a8a8a8a610ea3565b505050505050505050565b6001600160a01b0384163b1561084f5760405163bc197c8160e01b81526001600160a01b0385169063bc197c8190610d419089908990889088908890600401611771565b6020604051808303816000875af1925050508015610d7c575060408051601f3d908101601f19168201909252610d79918101906117cf565b60015b610e2857610d886117ec565b806308c379a003610dc15750610d9c611808565b80610da75750610dc3565b8060405162461bcd60e51b81526004016102a69190611044565b505b60405162461bcd60e51b815260206004820152603460248201527f455243313135353a207472616e7366657220746f206e6f6e20455243313135356044820152732932b1b2b4bb32b91034b6b83632b6b2b73a32b960611b60648201526084016102a6565b6001600160e01b0319811663bc197c8160e01b14610a4e5760405162461bcd60e51b81526004016102a690611892565b60408051600180825281830190925260609160009190602080830190803683370190505090508281600081518110610e9257610e92611551565b602090810291909101015292915050565b6001600160a01b0384163b1561084f5760405163f23a6e6160e01b81526001600160a01b0385169063f23a6e6190610ee790899089908890889088906004016118da565b6020604051808303816000875af1925050508015610f22575060408051601f3d908101601f19168201909252610f1f918101906117cf565b60015b610f2e57610d886117ec565b6001600160e01b0319811663f23a6e6160e01b14610a4e5760405162461bcd60e51b81526004016102a690611892565b80356001600160a01b0381168114610f7557600080fd5b919050565b60008060408385031215610f8d57600080fd5b610f9683610f5e565b946020939093013593505050565b6001600160e01b03198116811461055157600080fd5b600060208284031215610fcc57600080fd5b8135610fd781610fa4565b9392505050565b600060208284031215610ff057600080fd5b5035919050565b6000815180845260005b8181101561101d57602081850181015186830182015201611001565b8181111561102f576000602083870101525b50601f01601f19169290920160200192915050565b602081526000610fd76020830184610ff7565b634e487b7160e01b600052604160045260246000fd5b601f8201601f1916810167ffffffffffffffff8111828210171561109357611093611057565b6040525050565b600067ffffffffffffffff8211156110b4576110b4611057565b5060051b60200190565b600082601f8301126110cf57600080fd5b813560206110dc8261109a565b6040516110e9828261106d565b83815260059390931b850182019282810191508684111561110957600080fd5b8286015b84811015611124578035835291830191830161110d565b509695505050505050565b600067ffffffffffffffff83111561114957611149611057565b604051611160601f8501601f19166020018261106d565b80915083815284848401111561117557600080fd5b83836020830137600060208583010152509392505050565b600082601f83011261119e57600080fd5b610fd78383356020850161112f565b600080600080600060a086880312156111c557600080fd5b6111ce86610f5e565b94506111dc60208701610f5e565b9350604086013567ffffffffffffffff808211156111f957600080fd5b61120589838a016110be565b9450606088013591508082111561121b57600080fd5b61122789838a016110be565b9350608088013591508082111561123d57600080fd5b5061124a8882890161118d565b9150509295509295909350565b6000806040838503121561126a57600080fd5b823567ffffffffffffffff8082111561128257600080fd5b818501915085601f83011261129657600080fd5b813560206112a38261109a565b6040516112b0828261106d565b83815260059390931b85018201928281019150898411156112d057600080fd5b948201945b838610156112f5576112e686610f5e565b825294820194908201906112d5565b9650508601359250508082111561130b57600080fd5b50611318858286016110be565b9150509250929050565b600081518084526020808501945080840160005b8381101561135257815187529582019590820190600101611336565b509495945050505050565b602081526000610fd76020830184611322565b60006020828403121561138257600080fd5b813567ffffffffffffffff81111561139957600080fd5b8201601f810184136113aa57600080fd5b6113b98482356020840161112f565b949350505050565b600080604083850312156113d457600080fd5b6113dd83610f5e565b9150602083013580151581146113f257600080fd5b809150509250929050565b60008060006060848603121561141257600080fd5b61141b84610f5e565b95602085013595506040909401359392505050565b6000806040838503121561144357600080fd5b61144c83610f5e565b915061145a60208401610f5e565b90509250929050565b600080600080600060a0868803121561147b57600080fd5b61148486610f5e565b945061149260208701610f5e565b93506040860135925060608601359150608086013567ffffffffffffffff8111156114bc57600080fd5b61124a8882890161118d565b600181811c908216806114dc57607f821691505b6020821081036114fc57634e487b7160e01b600052602260045260246000fd5b50919050565b6020808252602f908201527f455243313135353a2063616c6c6572206973206e6f7420746f6b656e206f776e60408201526e195c881b9bdc88185c1c1c9bdd9959608a1b606082015260800190565b634e487b7160e01b600052603260045260246000fd5b634e487b7160e01b600052601160045260246000fd5b60006001820161158f5761158f611567565b5060010190565b60208082526025908201527f455243313135353a207472616e7366657220746f20746865207a65726f206164604082015264647265737360d81b606082015260800190565b6020808252602a908201527f455243313135353a20696e73756666696369656e742062616c616e636520666f60408201526939103a3930b739b332b960b11b606082015260800190565b6000821982111561163857611638611567565b500190565b6040815260006116506040830185611322565b82810360208401526116628185611322565b95945050505050565b601f8211156105e057600081815260208120601f850160051c810160208610156116925750805b601f850160051c820191505b8181101561084f5782815560010161169e565b815167ffffffffffffffff8111156116cb576116cb611057565b6116df816116d984546114c8565b8461166b565b602080601f83116001811461171457600084156116fc5750858301515b600019600386901b1c1916600185901b17855561084f565b600085815260208120601f198616915b8281101561174357888601518255948401946001909101908401611724565b50858210156117615787850151600019600388901b60f8161c191681555b5050505050600190811b01905550565b6001600160a01b0386811682528516602082015260a06040820181905260009061179d90830186611322565b82810360608401526117af8186611322565b905082810360808401526117c38185610ff7565b98975050505050505050565b6000602082840312156117e157600080fd5b8151610fd781610fa4565b600060033d11156118055760046000803e5060005160e01c5b90565b600060443d10156118165790565b6040516003193d81016004833e81513d67ffffffffffffffff816024840111818411171561184657505050505090565b828501915081518181111561185e5750505050505090565b843d87010160208285010111156118785750505050505090565b6118876020828601018761106d565b509095945050505050565b60208082526028908201527f455243313135353a204552433131353552656365697665722072656a656374656040820152676420746f6b656e7360c01b606082015260800190565b6001600160a01b03868116825285166020820152604081018490526060810183905260a06080820181905260009061191490830184610ff7565b97965050505050505056fea2646970667358221220304267758dc92ae30a100b1908c78c24b7f673c62294984dd7d691921078aeb064736f6c634300080f0033",
    "linkReferences": {}
  },
  "methodIdentifiers": {
    "ACCESS_TOKEN()": "3eb5002a",
    "balanceOf(address,uint256)": "00fdd58e",
    "balanceOfBatch(address[],uint256[])": "4e1273f4",
    "isApprovedForAll(address,address)": "e985e9c5",
    "mintAccessToken(address,uint256,uint256)": "a5c6ff67",
    "owner()": "8da5cb5b",
    "revokeAccessToken(address,uint256)": "b2262131",
    "safeBatchTransferFrom(address,address,uint256[],uint256[],bytes)": "2eb2c2d6",
    "safeTransferFrom(address,address,uint256,uint256,bytes)": "f242432a",
    "setApprovalForAll(address,bool)": "a22cb465",
    "supportsInterface(bytes4)": "01ffc9a7",
    "updateuri(string)": "70c7fde6",
    "uri(uint256)": "0e89341c"
  },
  "id": 17
}